{"project/contracts/Vesting.sol":{"Vesting":{"abi":[{"inputs":[{"internalType":"address","name":"_token","type":"address"},{"internalType":"address","name":"_root","type":"address"}],"stateMutability":"nonpayable","type":"constructor"},{"inputs":[],"name":"InvalidProof","type":"error"},{"inputs":[],"name":"NoSchedule","type":"error"},{"inputs":[],"name":"NotAllowed","type":"error"},{"inputs":[],"name":"NothingToRelease","type":"error"},{"inputs":[],"name":"ScheduleExists","type":"error"},{"inputs":[],"name":"TransferFailed","type":"error"},{"inputs":[{"internalType":"uint256","name":"amount","type":"uint256"},{"internalType":"uint256","name":"start","type":"uint256"},{"internalType":"uint256","name":"duration","type":"uint256"},{"internalType":"bytes32[]","name":"proof","type":"bytes32[]"}],"name":"createSchedule","outputs":[],"stateMutability":"nonpayable","type":"function"},{"inputs":[],"name":"merkleRoot","outputs":[{"internalType":"contract MerkleRoot","name":"","type":"address"}],"stateMutability":"view","type":"function"},{"inputs":[],"name":"release","outputs":[],"stateMutability":"nonpayable","type":"function"},{"inputs":[],"name":"token","outputs":[{"internalType":"contract IERC20","name":"","type":"address"}],"stateMutability":"view","type":"function"},{"inputs":[{"internalType":"address","name":"","type":"address"}],"name":"vestingSchedules","outputs":[{"internalType":"uint256","name":"totalAmount","type":"uint256"},{"internalType":"uint256","name":"released","type":"uint256"},{"internalType":"uint256","name":"start","type":"uint256"},{"internalType":"uint256","name":"duration","type":"uint256"}],"stateMutability":"view","type":"function"}],"evm":{"bytecode":{"linkReferences":{},"object":"60c060405234801561000f575f5ffd5b5060405161075c38038061075c83398101604081905261002e91610060565b6001600160a01b039182166080521660a052610091565b80516001600160a01b038116811461005b575f5ffd5b919050565b5f5f60408385031215610071575f5ffd5b61007a83610045565b915061008860208401610045565b90509250929050565b60805160a0516106976100c55f395f8181605e015261014c01525f818160bf0152818161023801526103e601526106975ff3fe608060405234801561000f575f5ffd5b5060043610610055575f3560e01c80632eb4a7ab146100595780634ad321421461009d57806386d1a69f146100b2578063fc0c546a146100ba578063fdb20ccb146100e1575b5f5ffd5b6100807f000000000000000000000000000000000000000000000000000000000000000081565b6040516001600160a01b0390911681526020015b60405180910390f35b6100b06100ab3660046104c1565b610135565b005b6100b0610314565b6100807f000000000000000000000000000000000000000000000000000000000000000081565b6101156100ef36600461054b565b5f6020819052908152604090208054600182015460028301546003909301549192909184565b604080519485526020850193909352918301526060820152608001610094565b6040516309a3ee1760e01b81526001600160a01b037f000000000000000000000000000000000000000000000000000000000000000016906309a3ee179061018b908890869086908a908a903390600401610578565b602060405180830381865afa1580156101a6573d5f5f3e3d5ffd5b505050506040513d601f19601f820116820180604052508101906101ca91906105d2565b6101e7576040516309bde33960e01b815260040160405180910390fd5b335f90815260208190526040902054156102145760405163a2812bd560e01b815260040160405180910390fd5b6040516323b872dd60e01b8152336004820152306024820152604481018690525f907f00000000000000000000000000000000000000000000000000000000000000006001600160a01b0316906323b872dd906064016020604051808303815f875af1158015610286573d5f5f3e3d5ffd5b505050506040513d601f19601f820116820180604052508101906102aa91906105d2565b9050806102ca576040516312171d8360e31b815260040160405180910390fd5b5050604080516080810182529485525f6020808701828152878401968752606088019586523383529082905291902094518555516001850155509051600283015551600390910155565b335f908152602081905260408120805490910361034457604051633e47303760e11b815260040160405180910390fd5b604080516080810182528254815260018301546020820152600283015491810191909152600382015460608201525f9061037d9061045e565b90505f8260010154826103909190610605565b9050805f036103b25760405163b10205ed60e01b815260040160405180910390fd5b80836001015f8282546103c59190610618565b909155505060405163a9059cbb60e01b8152336004820152602481018290527f00000000000000000000000000000000000000000000000000000000000000006001600160a01b03169063a9059cbb906044016020604051808303815f875af1158015610434573d5f5f3e3d5ffd5b505050506040513d601f19601f8201168201806040525081019061045891906105d2565b50505050565b5f816040015142101561047257505f919050565b816060015182604001516104869190610618565b421061049157505190565b606082015160408301516104a59042610605565b83516104b1919061062b565b6104bb9190610642565b92915050565b5f5f5f5f5f608086880312156104d5575f5ffd5b853594506020860135935060408601359250606086013567ffffffffffffffff811115610500575f5ffd5b8601601f81018813610510575f5ffd5b803567ffffffffffffffff811115610526575f5ffd5b8860208260051b840101111561053a575f5ffd5b959894975092955050506020019190565b5f6020828403121561055b575f5ffd5b81356001600160a01b0381168114610571575f5ffd5b9392505050565b86815260a06020820181905281018590525f6001600160fb1b0386111561059d575f5ffd5b8560051b808860c085013760408301959095525060608101929092526001600160a01b031660808201520160c0019392505050565b5f602082840312156105e2575f5ffd5b81518015158114610571575f5ffd5b634e487b7160e01b5f52601160045260245ffd5b818103818111156104bb576104bb6105f1565b808201808211156104bb576104bb6105f1565b80820281158282048414176104bb576104bb6105f1565b5f8261065c57634e487b7160e01b5f52601260045260245ffd5b50049056fea264697066735822122073af96f967b3460862a72854e5a74b79b148c732802634f7df9900e60ca71bcc64736f6c634300081c0033","opcodes":"PUSH1 0xC0 PUSH1 0x40 MSTORE CALLVALUE DUP1 ISZERO PUSH2 0xF JUMPI PUSH0 PUSH0 REVERT JUMPDEST POP PUSH1 0x40 MLOAD PUSH2 0x75C CODESIZE SUB DUP1 PUSH2 0x75C DUP4 CODECOPY DUP2 ADD PUSH1 0x40 DUP2 SWAP1 MSTORE PUSH2 0x2E SWAP2 PUSH2 0x60 JUMP JUMPDEST PUSH1 0x1 PUSH1 0x1 PUSH1 0xA0 SHL SUB SWAP2 DUP3 AND PUSH1 0x80 MSTORE AND PUSH1 0xA0 MSTORE PUSH2 0x91 JUMP JUMPDEST DUP1 MLOAD PUSH1 0x1 PUSH1 0x1 PUSH1 0xA0 SHL SUB DUP2 AND DUP2 EQ PUSH2 0x5B JUMPI PUSH0 PUSH0 REVERT JUMPDEST SWAP2 SWAP1 POP JUMP JUMPDEST PUSH0 PUSH0 PUSH1 0x40 DUP4 DUP6 SUB SLT ISZERO PUSH2 0x71 JUMPI PUSH0 PUSH0 REVERT JUMPDEST PUSH2 0x7A DUP4 PUSH2 0x45 JUMP JUMPDEST SWAP2 POP PUSH2 0x88 PUSH1 0x20 DUP5 ADD PUSH2 0x45 JUMP JUMPDEST SWAP1 POP SWAP3 POP SWAP3 SWAP1 POP JUMP JUMPDEST PUSH1 0x80 MLOAD PUSH1 0xA0 MLOAD PUSH2 0x697 PUSH2 0xC5 PUSH0 CODECOPY PUSH0 DUP2 DUP2 PUSH1 0x5E ADD MSTORE PUSH2 0x14C ADD MSTORE PUSH0 DUP2 DUP2 PUSH1 0xBF ADD MSTORE DUP2 DUP2 PUSH2 0x238 ADD MSTORE PUSH2 0x3E6 ADD MSTORE PUSH2 0x697 PUSH0 RETURN INVALID PUSH1 0x80 PUSH1 0x40 MSTORE CALLVALUE DUP1 ISZERO PUSH2 0xF JUMPI PUSH0 PUSH0 REVERT JUMPDEST POP PUSH1 0x4 CALLDATASIZE LT PUSH2 0x55 JUMPI PUSH0 CALLDATALOAD PUSH1 0xE0 SHR DUP1 PUSH4 0x2EB4A7AB EQ PUSH2 0x59 JUMPI DUP1 PUSH4 0x4AD32142 EQ PUSH2 0x9D JUMPI DUP1 PUSH4 0x86D1A69F EQ PUSH2 0xB2 JUMPI DUP1 PUSH4 0xFC0C546A EQ PUSH2 0xBA JUMPI DUP1 PUSH4 0xFDB20CCB EQ PUSH2 0xE1 JUMPI JUMPDEST PUSH0 PUSH0 REVERT JUMPDEST PUSH2 0x80 PUSH32 0x0 DUP2 JUMP JUMPDEST PUSH1 0x40 MLOAD PUSH1 0x1 PUSH1 0x1 PUSH1 0xA0 SHL SUB SWAP1 SWAP2 AND DUP2 MSTORE PUSH1 0x20 ADD JUMPDEST PUSH1 0x40 MLOAD DUP1 SWAP2 SUB SWAP1 RETURN JUMPDEST PUSH2 0xB0 PUSH2 0xAB CALLDATASIZE PUSH1 0x4 PUSH2 0x4C1 JUMP JUMPDEST PUSH2 0x135 JUMP JUMPDEST STOP JUMPDEST PUSH2 0xB0 PUSH2 0x314 JUMP JUMPDEST PUSH2 0x80 PUSH32 0x0 DUP2 JUMP JUMPDEST PUSH2 0x115 PUSH2 0xEF CALLDATASIZE PUSH1 0x4 PUSH2 0x54B JUMP JUMPDEST PUSH0 PUSH1 0x20 DUP2 SWAP1 MSTORE SWAP1 DUP2 MSTORE PUSH1 0x40 SWAP1 KECCAK256 DUP1 SLOAD PUSH1 0x1 DUP3 ADD SLOAD PUSH1 0x2 DUP4 ADD SLOAD PUSH1 0x3 SWAP1 SWAP4 ADD SLOAD SWAP2 SWAP3 SWAP1 SWAP2 DUP5 JUMP JUMPDEST PUSH1 0x40 DUP1 MLOAD SWAP5 DUP6 MSTORE PUSH1 0x20 DUP6 ADD SWAP4 SWAP1 SWAP4 MSTORE SWAP2 DUP4 ADD MSTORE PUSH1 0x60 DUP3 ADD MSTORE PUSH1 0x80 ADD PUSH2 0x94 JUMP JUMPDEST PUSH1 0x40 MLOAD PUSH4 0x9A3EE17 PUSH1 0xE0 SHL DUP2 MSTORE PUSH1 0x1 PUSH1 0x1 PUSH1 0xA0 SHL SUB PUSH32 0x0 AND SWAP1 PUSH4 0x9A3EE17 SWAP1 PUSH2 0x18B SWAP1 DUP9 SWAP1 DUP7 SWAP1 DUP7 SWAP1 DUP11 SWAP1 DUP11 SWAP1 CALLER SWAP1 PUSH1 0x4 ADD PUSH2 0x578 JUMP JUMPDEST PUSH1 0x20 PUSH1 0x40 MLOAD DUP1 DUP4 SUB DUP2 DUP7 GAS STATICCALL ISZERO DUP1 ISZERO PUSH2 0x1A6 JUMPI RETURNDATASIZE PUSH0 PUSH0 RETURNDATACOPY RETURNDATASIZE PUSH0 REVERT JUMPDEST POP POP POP POP PUSH1 0x40 MLOAD RETURNDATASIZE PUSH1 0x1F NOT PUSH1 0x1F DUP3 ADD AND DUP3 ADD DUP1 PUSH1 0x40 MSTORE POP DUP2 ADD SWAP1 PUSH2 0x1CA SWAP2 SWAP1 PUSH2 0x5D2 JUMP JUMPDEST PUSH2 0x1E7 JUMPI PUSH1 0x40 MLOAD PUSH4 0x9BDE339 PUSH1 0xE0 SHL DUP2 MSTORE PUSH1 0x4 ADD PUSH1 0x40 MLOAD DUP1 SWAP2 SUB SWAP1 REVERT JUMPDEST CALLER PUSH0 SWAP1 DUP2 MSTORE PUSH1 0x20 DUP2 SWAP1 MSTORE PUSH1 0x40 SWAP1 KECCAK256 SLOAD ISZERO PUSH2 0x214 JUMPI PUSH1 0x40 MLOAD PUSH4 0xA2812BD5 PUSH1 0xE0 SHL DUP2 MSTORE PUSH1 0x4 ADD PUSH1 0x40 MLOAD DUP1 SWAP2 SUB SWAP1 REVERT JUMPDEST PUSH1 0x40 MLOAD PUSH4 0x23B872DD PUSH1 0xE0 SHL DUP2 MSTORE CALLER PUSH1 0x4 DUP3 ADD MSTORE ADDRESS PUSH1 0x24 DUP3 ADD MSTORE PUSH1 0x44 DUP2 ADD DUP7 SWAP1 MSTORE PUSH0 SWAP1 PUSH32 0x0 PUSH1 0x1 PUSH1 0x1 PUSH1 0xA0 SHL SUB AND SWAP1 PUSH4 0x23B872DD SWAP1 PUSH1 0x64 ADD PUSH1 0x20 PUSH1 0x40 MLOAD DUP1 DUP4 SUB DUP2 PUSH0 DUP8 GAS CALL ISZERO DUP1 ISZERO PUSH2 0x286 JUMPI RETURNDATASIZE PUSH0 PUSH0 RETURNDATACOPY RETURNDATASIZE PUSH0 REVERT JUMPDEST POP POP POP POP PUSH1 0x40 MLOAD RETURNDATASIZE PUSH1 0x1F NOT PUSH1 0x1F DUP3 ADD AND DUP3 ADD DUP1 PUSH1 0x40 MSTORE POP DUP2 ADD SWAP1 PUSH2 0x2AA SWAP2 SWAP1 PUSH2 0x5D2 JUMP JUMPDEST SWAP1 POP DUP1 PUSH2 0x2CA JUMPI PUSH1 0x40 MLOAD PUSH4 0x12171D83 PUSH1 0xE3 SHL DUP2 MSTORE PUSH1 0x4 ADD PUSH1 0x40 MLOAD DUP1 SWAP2 SUB SWAP1 REVERT JUMPDEST POP POP PUSH1 0x40 DUP1 MLOAD PUSH1 0x80 DUP2 ADD DUP3 MSTORE SWAP5 DUP6 MSTORE PUSH0 PUSH1 0x20 DUP1 DUP8 ADD DUP3 DUP2 MSTORE DUP8 DUP5 ADD SWAP7 DUP8 MSTORE PUSH1 0x60 DUP9 ADD SWAP6 DUP7 MSTORE CALLER DUP4 MSTORE SWAP1 DUP3 SWAP1 MSTORE SWAP2 SWAP1 KECCAK256 SWAP5 MLOAD DUP6 SSTORE MLOAD PUSH1 0x1 DUP6 ADD SSTORE POP SWAP1 MLOAD PUSH1 0x2 DUP4 ADD SSTORE MLOAD PUSH1 0x3 SWAP1 SWAP2 ADD SSTORE JUMP JUMPDEST CALLER PUSH0 SWAP1 DUP2 MSTORE PUSH1 0x20 DUP2 SWAP1 MSTORE PUSH1 0x40 DUP2 KECCAK256 DUP1 SLOAD SWAP1 SWAP2 SUB PUSH2 0x344 JUMPI PUSH1 0x40 MLOAD PUSH4 0x3E473037 PUSH1 0xE1 SHL DUP2 MSTORE PUSH1 0x4 ADD PUSH1 0x40 MLOAD DUP1 SWAP2 SUB SWAP1 REVERT JUMPDEST PUSH1 0x40 DUP1 MLOAD PUSH1 0x80 DUP2 ADD DUP3 MSTORE DUP3 SLOAD DUP2 MSTORE PUSH1 0x1 DUP4 ADD SLOAD PUSH1 0x20 DUP3 ADD MSTORE PUSH1 0x2 DUP4 ADD SLOAD SWAP2 DUP2 ADD SWAP2 SWAP1 SWAP2 MSTORE PUSH1 0x3 DUP3 ADD SLOAD PUSH1 0x60 DUP3 ADD MSTORE PUSH0 SWAP1 PUSH2 0x37D SWAP1 PUSH2 0x45E JUMP JUMPDEST SWAP1 POP PUSH0 DUP3 PUSH1 0x1 ADD SLOAD DUP3 PUSH2 0x390 SWAP2 SWAP1 PUSH2 0x605 JUMP JUMPDEST SWAP1 POP DUP1 PUSH0 SUB PUSH2 0x3B2 JUMPI PUSH1 0x40 MLOAD PUSH4 0xB10205ED PUSH1 0xE0 SHL DUP2 MSTORE PUSH1 0x4 ADD PUSH1 0x40 MLOAD DUP1 SWAP2 SUB SWAP1 REVERT JUMPDEST DUP1 DUP4 PUSH1 0x1 ADD PUSH0 DUP3 DUP3 SLOAD PUSH2 0x3C5 SWAP2 SWAP1 PUSH2 0x618 JUMP JUMPDEST SWAP1 SWAP2 SSTORE POP POP PUSH1 0x40 MLOAD PUSH4 0xA9059CBB PUSH1 0xE0 SHL DUP2 MSTORE CALLER PUSH1 0x4 DUP3 ADD MSTORE PUSH1 0x24 DUP2 ADD DUP3 SWAP1 MSTORE PUSH32 0x0 PUSH1 0x1 PUSH1 0x1 PUSH1 0xA0 SHL SUB AND SWAP1 PUSH4 0xA9059CBB SWAP1 PUSH1 0x44 ADD PUSH1 0x20 PUSH1 0x40 MLOAD DUP1 DUP4 SUB DUP2 PUSH0 DUP8 GAS CALL ISZERO DUP1 ISZERO PUSH2 0x434 JUMPI RETURNDATASIZE PUSH0 PUSH0 RETURNDATACOPY RETURNDATASIZE PUSH0 REVERT JUMPDEST POP POP POP POP PUSH1 0x40 MLOAD RETURNDATASIZE PUSH1 0x1F NOT PUSH1 0x1F DUP3 ADD AND DUP3 ADD DUP1 PUSH1 0x40 MSTORE POP DUP2 ADD SWAP1 PUSH2 0x458 SWAP2 SWAP1 PUSH2 0x5D2 JUMP JUMPDEST POP POP POP POP JUMP JUMPDEST PUSH0 DUP2 PUSH1 0x40 ADD MLOAD TIMESTAMP LT ISZERO PUSH2 0x472 JUMPI POP PUSH0 SWAP2 SWAP1 POP JUMP JUMPDEST DUP2 PUSH1 0x60 ADD MLOAD DUP3 PUSH1 0x40 ADD MLOAD PUSH2 0x486 SWAP2 SWAP1 PUSH2 0x618 JUMP JUMPDEST TIMESTAMP LT PUSH2 0x491 JUMPI POP MLOAD SWAP1 JUMP JUMPDEST PUSH1 0x60 DUP3 ADD MLOAD PUSH1 0x40 DUP4 ADD MLOAD PUSH2 0x4A5 SWAP1 TIMESTAMP PUSH2 0x605 JUMP JUMPDEST DUP4 MLOAD PUSH2 0x4B1 SWAP2 SWAP1 PUSH2 0x62B JUMP JUMPDEST PUSH2 0x4BB SWAP2 SWAP1 PUSH2 0x642 JUMP JUMPDEST SWAP3 SWAP2 POP POP JUMP JUMPDEST PUSH0 PUSH0 PUSH0 PUSH0 PUSH0 PUSH1 0x80 DUP7 DUP9 SUB SLT ISZERO PUSH2 0x4D5 JUMPI PUSH0 PUSH0 REVERT JUMPDEST DUP6 CALLDATALOAD SWAP5 POP PUSH1 0x20 DUP7 ADD CALLDATALOAD SWAP4 POP PUSH1 0x40 DUP7 ADD CALLDATALOAD SWAP3 POP PUSH1 0x60 DUP7 ADD CALLDATALOAD PUSH8 0xFFFFFFFFFFFFFFFF DUP2 GT ISZERO PUSH2 0x500 JUMPI PUSH0 PUSH0 REVERT JUMPDEST DUP7 ADD PUSH1 0x1F DUP2 ADD DUP9 SGT PUSH2 0x510 JUMPI PUSH0 PUSH0 REVERT JUMPDEST DUP1 CALLDATALOAD PUSH8 0xFFFFFFFFFFFFFFFF DUP2 GT ISZERO PUSH2 0x526 JUMPI PUSH0 PUSH0 REVERT JUMPDEST DUP9 PUSH1 0x20 DUP3 PUSH1 0x5 SHL DUP5 ADD ADD GT ISZERO PUSH2 0x53A JUMPI PUSH0 PUSH0 REVERT JUMPDEST SWAP6 SWAP9 SWAP5 SWAP8 POP SWAP3 SWAP6 POP POP POP PUSH1 0x20 ADD SWAP2 SWAP1 JUMP JUMPDEST PUSH0 PUSH1 0x20 DUP3 DUP5 SUB SLT ISZERO PUSH2 0x55B JUMPI PUSH0 PUSH0 REVERT JUMPDEST DUP2 CALLDATALOAD PUSH1 0x1 PUSH1 0x1 PUSH1 0xA0 SHL SUB DUP2 AND DUP2 EQ PUSH2 0x571 JUMPI PUSH0 PUSH0 REVERT JUMPDEST SWAP4 SWAP3 POP POP POP JUMP JUMPDEST DUP7 DUP2 MSTORE PUSH1 0xA0 PUSH1 0x20 DUP3 ADD DUP2 SWAP1 MSTORE DUP2 ADD DUP6 SWAP1 MSTORE PUSH0 PUSH1 0x1 PUSH1 0x1 PUSH1 0xFB SHL SUB DUP7 GT ISZERO PUSH2 0x59D JUMPI PUSH0 PUSH0 REVERT JUMPDEST DUP6 PUSH1 0x5 SHL DUP1 DUP9 PUSH1 0xC0 DUP6 ADD CALLDATACOPY PUSH1 0x40 DUP4 ADD SWAP6 SWAP1 SWAP6 MSTORE POP PUSH1 0x60 DUP2 ADD SWAP3 SWAP1 SWAP3 MSTORE PUSH1 0x1 PUSH1 0x1 PUSH1 0xA0 SHL SUB AND PUSH1 0x80 DUP3 ADD MSTORE ADD PUSH1 0xC0 ADD SWAP4 SWAP3 POP POP POP JUMP JUMPDEST PUSH0 PUSH1 0x20 DUP3 DUP5 SUB SLT ISZERO PUSH2 0x5E2 JUMPI PUSH0 PUSH0 REVERT JUMPDEST DUP2 MLOAD DUP1 ISZERO ISZERO DUP2 EQ PUSH2 0x571 JUMPI PUSH0 PUSH0 REVERT JUMPDEST PUSH4 0x4E487B71 PUSH1 0xE0 SHL PUSH0 MSTORE PUSH1 0x11 PUSH1 0x4 MSTORE PUSH1 0x24 PUSH0 REVERT JUMPDEST DUP2 DUP2 SUB DUP2 DUP2 GT ISZERO PUSH2 0x4BB JUMPI PUSH2 0x4BB PUSH2 0x5F1 JUMP JUMPDEST DUP1 DUP3 ADD DUP1 DUP3 GT ISZERO PUSH2 0x4BB JUMPI PUSH2 0x4BB PUSH2 0x5F1 JUMP JUMPDEST DUP1 DUP3 MUL DUP2 ISZERO DUP3 DUP3 DIV DUP5 EQ OR PUSH2 0x4BB JUMPI PUSH2 0x4BB PUSH2 0x5F1 JUMP JUMPDEST PUSH0 DUP3 PUSH2 0x65C JUMPI PUSH4 0x4E487B71 PUSH1 0xE0 SHL PUSH0 MSTORE PUSH1 0x12 PUSH1 0x4 MSTORE PUSH1 0x24 PUSH0 REVERT JUMPDEST POP DIV SWAP1 JUMP INVALID LOG2 PUSH5 0x6970667358 0x22 SLT KECCAK256 PUSH20 0xAF96F967B3460862A72854E5A74B79B148C73280 0x26 CALLVALUE 0xF7 0xDF SWAP10 STOP 0xE6 0xC 0xA7 SHL 0xCC PUSH5 0x736F6C6343 STOP ADDMOD SHR STOP CALLER "},"methodIdentifiers":{"createSchedule(uint256,uint256,uint256,bytes32[])":"4ad32142","merkleRoot()":"2eb4a7ab","release()":"86d1a69f","token()":"fc0c546a","vestingSchedules(address)":"fdb20ccb"}}}}}