{
  "_format": "hh3-artifact-1",
  "contractName": "MerkleRoot",
  "sourceName": "contracts/MerkleRoot.sol",
  "abi": [
    {
      "inputs": [
        {
          "internalType": "bytes32",
          "name": "_root",
          "type": "bytes32"
        }
      ],
      "stateMutability": "nonpayable",
      "type": "constructor"
    },
    {
      "inputs": [
        {
          "internalType": "uint256",
          "name": "totalAmount",
          "type": "uint256"
        },
        {
          "internalType": "bytes32[]",
          "name": "proof",
          "type": "bytes32[]"
        },
        {
          "internalType": "uint256",
          "name": "start",
          "type": "uint256"
        },
        {
          "internalType": "uint256",
          "name": "duration",
          "type": "uint256"
        },
        {
          "internalType": "address",
          "name": "beneficiary",
          "type": "address"
        }
      ],
      "name": "Verify",
      "outputs": [
        {
          "internalType": "bool",
          "name": "",
          "type": "bool"
        }
      ],
      "stateMutability": "view",
      "type": "function"
    },
    {
      "inputs": [],
      "name": "merkleRoot",
      "outputs": [
        {
          "internalType": "bytes32",
          "name": "",
          "type": "bytes32"
        }
      ],
      "stateMutability": "view",
      "type": "function"
    }
  ],
  "bytecode": "0x60a060405234801561000f575f5ffd5b506040516105cc3803806105cc83398181016040528101906100319190610076565b8060808181525050506100a1565b5f5ffd5b5f819050919050565b61005581610043565b811461005f575f5ffd5b50565b5f815190506100708161004c565b92915050565b5f6020828403121561008b5761008a61003f565b5b5f61009884828501610062565b91505092915050565b60805161050c6100c05f395f81816101230152610157015261050c5ff3fe608060405234801561000f575f5ffd5b5060043610610034575f3560e01c806309a3ee17146100385780632eb4a7ab14610068575b5f5ffd5b610052600480360381019061004d9190610314565b610086565b60405161005f91906103c4565b60405180910390f35b610070610155565b60405161007d91906103f5565b60405180910390f35b5f5f8288868660405160200161009f949392919061042c565b604051602081830303815290604052805190602001206040516020016100c5919061048f565b6040516020818303038152906040528051906020012090506101488787808060200260200160405190810160405280939291908181526020018383602002808284375f81840152601f19601f820116905080830192505050505050507f000000000000000000000000000000000000000000000000000000000000000083610179565b9150509695505050505050565b7f000000000000000000000000000000000000000000000000000000000000000081565b5f82610185858461018f565b1490509392505050565b5f5f8290505f5f90505b84518110156101d5576101c6828683815181106101b9576101b86104a9565b5b60200260200101516101e0565b91508080600101915050610199565b508091505092915050565b5f8183106101f7576101f2828461020a565b610202565b610201838361020a565b5b905092915050565b5f825f528160205260405f20905092915050565b5f5ffd5b5f5ffd5b5f819050919050565b61023881610226565b8114610242575f5ffd5b50565b5f813590506102538161022f565b92915050565b5f5ffd5b5f5ffd5b5f5ffd5b5f5f83601f84011261027a57610279610259565b5b8235905067ffffffffffffffff8111156102975761029661025d565b5b6020830191508360208202830111156102b3576102b2610261565b5b9250929050565b5f73ffffffffffffffffffffffffffffffffffffffff82169050919050565b5f6102e3826102ba565b9050919050565b6102f3816102d9565b81146102fd575f5ffd5b50565b5f8135905061030e816102ea565b92915050565b5f5f5f5f5f5f60a0878903121561032e5761032d61021e565b5b5f61033b89828a01610245565b965050602087013567ffffffffffffffff81111561035c5761035b610222565b5b61036889828a01610265565b9550955050604061037b89828a01610245565b935050606061038c89828a01610245565b925050608061039d89828a01610300565b9150509295509295509295565b5f8115159050919050565b6103be816103aa565b82525050565b5f6020820190506103d75f8301846103b5565b92915050565b5f819050919050565b6103ef816103dd565b82525050565b5f6020820190506104085f8301846103e6565b92915050565b610417816102d9565b82525050565b61042681610226565b82525050565b5f60808201905061043f5f83018761040e565b61044c602083018661041d565b610459604083018561041d565b610466606083018461041d565b95945050505050565b5f819050919050565b610489610484826103dd565b61046f565b82525050565b5f61049a8284610478565b60208201915081905092915050565b7f4e487b71000000000000000000000000000000000000000000000000000000005f52603260045260245ffdfea2646970667358221220138e47830eec7fd8ae7265a9ce7842a4dc019e8c85a6534f6c39fc12964644ed64736f6c634300081c0033",
  "linkReferences": {},
  "deployedLinkReferences": {},
  "immutableReferences": {
    "2334": [
      {
        "length": 32,
        "start": 291
      },
      {
        "length": 32,
        "start": 343
      }
    ]
  },
  "inputSourceName": "project/contracts/MerkleRoot.sol",
  "buildInfoId": "solc-0_8_28-fab29a91d0d54c9142c1abeaecc755bc9697cf7c"
}