{
  "_format": "hh3-artifact-1",
  "contractName": "Vesting",
  "sourceName": "contracts/Vesting.sol",
  "abi": [
    {
      "inputs": [
        {
          "internalType": "address",
          "name": "_token",
          "type": "address"
        },
        {
          "internalType": "address",
          "name": "_root",
          "type": "address"
        }
      ],
      "stateMutability": "nonpayable",
      "type": "constructor"
    },
    {
      "inputs": [],
      "name": "InsufficientContractBalance",
      "type": "error"
    },
    {
      "inputs": [],
      "name": "InvalidAmount",
      "type": "error"
    },
    {
      "inputs": [],
      "name": "InvalidBeneficiary",
      "type": "error"
    },
    {
      "inputs": [],
      "name": "InvalidProof",
      "type": "error"
    },
    {
      "inputs": [],
      "name": "NoSchedule",
      "type": "error"
    },
    {
      "inputs": [],
      "name": "NothingToRelease",
      "type": "error"
    },
    {
      "inputs": [
        {
          "internalType": "address",
          "name": "owner",
          "type": "address"
        }
      ],
      "name": "OwnableInvalidOwner",
      "type": "error"
    },
    {
      "inputs": [
        {
          "internalType": "address",
          "name": "account",
          "type": "address"
        }
      ],
      "name": "OwnableUnauthorizedAccount",
      "type": "error"
    },
    {
      "inputs": [],
      "name": "ReentrancyGuardReentrantCall",
      "type": "error"
    },
    {
      "inputs": [],
      "name": "ScheduleExists",
      "type": "error"
    },
    {
      "inputs": [],
      "name": "TransferFailed",
      "type": "error"
    },
    {
      "anonymous": false,
      "inputs": [
        {
          "indexed": true,
          "internalType": "address",
          "name": "previousOwner",
          "type": "address"
        },
        {
          "indexed": true,
          "internalType": "address",
          "name": "newOwner",
          "type": "address"
        }
      ],
      "name": "OwnershipTransferred",
      "type": "event"
    },
    {
      "inputs": [
        {
          "internalType": "address",
          "name": "beneficiary",
          "type": "address"
        },
        {
          "internalType": "uint256",
          "name": "amount",
          "type": "uint256"
        }
      ],
      "name": "addAllocation",
      "outputs": [],
      "stateMutability": "nonpayable",
      "type": "function"
    },
    {
      "inputs": [
        {
          "internalType": "address",
          "name": "",
          "type": "address"
        }
      ],
      "name": "adminAllocations",
      "outputs": [
        {
          "internalType": "uint256",
          "name": "",
          "type": "uint256"
        }
      ],
      "stateMutability": "view",
      "type": "function"
    },
    {
      "inputs": [
        {
          "internalType": "uint256",
          "name": "amount",
          "type": "uint256"
        },
        {
          "internalType": "uint256",
          "name": "start",
          "type": "uint256"
        },
        {
          "internalType": "uint256",
          "name": "duration",
          "type": "uint256"
        },
        {
          "internalType": "bytes32[]",
          "name": "proof",
          "type": "bytes32[]"
        }
      ],
      "name": "claimAirdrop",
      "outputs": [],
      "stateMutability": "nonpayable",
      "type": "function"
    },
    {
      "inputs": [
        {
          "internalType": "bytes32[]",
          "name": "proof",
          "type": "bytes32[]"
        },
        {
          "internalType": "uint256",
          "name": "duration",
          "type": "uint256"
        },
        {
          "internalType": "uint256",
          "name": "start",
          "type": "uint256"
        }
      ],
      "name": "invest",
      "outputs": [],
      "stateMutability": "payable",
      "type": "function"
    },
    {
      "inputs": [],
      "name": "merkleRoot",
      "outputs": [
        {
          "internalType": "contract MerkleRoot",
          "name": "",
          "type": "address"
        }
      ],
      "stateMutability": "view",
      "type": "function"
    },
    {
      "inputs": [],
      "name": "owner",
      "outputs": [
        {
          "internalType": "address",
          "name": "",
          "type": "address"
        }
      ],
      "stateMutability": "view",
      "type": "function"
    },
    {
      "inputs": [],
      "name": "release",
      "outputs": [],
      "stateMutability": "nonpayable",
      "type": "function"
    },
    {
      "inputs": [],
      "name": "renounceOwnership",
      "outputs": [],
      "stateMutability": "nonpayable",
      "type": "function"
    },
    {
      "inputs": [],
      "name": "token",
      "outputs": [
        {
          "internalType": "contract IERC20",
          "name": "",
          "type": "address"
        }
      ],
      "stateMutability": "view",
      "type": "function"
    },
    {
      "inputs": [],
      "name": "tokenRate",
      "outputs": [
        {
          "internalType": "uint256",
          "name": "",
          "type": "uint256"
        }
      ],
      "stateMutability": "view",
      "type": "function"
    },
    {
      "inputs": [
        {
          "internalType": "address",
          "name": "newOwner",
          "type": "address"
        }
      ],
      "name": "transferOwnership",
      "outputs": [],
      "stateMutability": "nonpayable",
      "type": "function"
    },
    {
      "inputs": [
        {
          "internalType": "address",
          "name": "",
          "type": "address"
        }
      ],
      "name": "vestingSchedules",
      "outputs": [
        {
          "internalType": "uint256",
          "name": "totalAmount",
          "type": "uint256"
        },
        {
          "internalType": "uint256",
          "name": "released",
          "type": "uint256"
        },
        {
          "internalType": "uint256",
          "name": "start",
          "type": "uint256"
        },
        {
          "internalType": "uint256",
          "name": "duration",
          "type": "uint256"
        }
      ],
      "stateMutability": "view",
      "type": "function"
    },
    {
      "inputs": [],
      "name": "withdraw",
      "outputs": [],
      "stateMutability": "nonpayable",
      "type": "function"
    }
  ],
  "bytecode": "0x60e0604052678ac7230489e8000060c09081525034801561001e575f5ffd5b50604051611947380380611947833981810160405281019061004091906102a5565b335f73ffffffffffffffffffffffffffffffffffffffff168173ffffffffffffffffffffffffffffffffffffffff16036100b1575f6040517f1e4fbdf70000000000000000000000000000000000000000000000000000000081526004016100a891906102f2565b60405180910390fd5b6100c08161015460201b60201c565b5060016100df6100d461021560201b60201c565b61023e60201b60201c565b5f01819055508173ffffffffffffffffffffffffffffffffffffffff1660808173ffffffffffffffffffffffffffffffffffffffff16815250508073ffffffffffffffffffffffffffffffffffffffff1660a08173ffffffffffffffffffffffffffffffffffffffff1681525050505061030b565b5f5f5f9054906101000a900473ffffffffffffffffffffffffffffffffffffffff169050815f5f6101000a81548173ffffffffffffffffffffffffffffffffffffffff021916908373ffffffffffffffffffffffffffffffffffffffff1602179055508173ffffffffffffffffffffffffffffffffffffffff168173ffffffffffffffffffffffffffffffffffffffff167f8be0079c531659141344cd1fd0a4f28419497f9722a3daafe3b4186f6b6457e060405160405180910390a35050565b5f7f9b779b17422d0df92223018b32b4d1fa46e071723d6817e2486d003becc55f005f1b905090565b5f819050919050565b5f5ffd5b5f73ffffffffffffffffffffffffffffffffffffffff82169050919050565b5f6102748261024b565b9050919050565b6102848161026a565b811461028e575f5ffd5b50565b5f8151905061029f8161027b565b92915050565b5f5f604083850312156102bb576102ba610247565b5b5f6102c885828601610291565b92505060206102d985828601610291565b9150509250929050565b6102ec8161026a565b82525050565b5f6020820190506103055f8301846102e3565b92915050565b60805160a05160c0516115ef6103585f395f81816102e401526109ed01525f81816102c00152818161044d0152610a5e01525f81816107900152818161087a0152610b4f01526115ef5ff3fe6080604052600436106100c1575f3560e01c806386d1a69f1161007e578063f3e58ffa11610058578063f3e58ffa146101fd578063f4baea1214610239578063fc0c546a14610255578063fdb20ccb1461027f576100c1565b806386d1a69f146101955780638da5cb5b146101ab578063f2fde38b146101d5576100c1565b80632eb4a7ab146100c557806331711884146100ef5780633ccfd60b146101195780634cc9e2751461012f57806351fcf82214610157578063715018a61461017f575b5f5ffd5b3480156100d0575f5ffd5b506100d96102be565b6040516100e69190610f95565b60405180910390f35b3480156100fa575f5ffd5b506101036102e2565b6040516101109190610fc6565b60405180910390f35b348015610124575f5ffd5b5061012d610306565b005b34801561013a575f5ffd5b506101556004803603810190610150919061104c565b6103b7565b005b348015610162575f5ffd5b5061017d600480360381019061017891906110eb565b6103cd565b005b34801561018a575f5ffd5b50610193610674565b005b3480156101a0575f5ffd5b506101a9610687565b005b3480156101b6575f5ffd5b506101bf610919565b6040516101cc919061117e565b60405180910390f35b3480156101e0575f5ffd5b506101fb60048036038101906101f69190611197565b610940565b005b348015610208575f5ffd5b50610223600480360381019061021e9190611197565b6109c4565b6040516102309190610fc6565b60405180910390f35b610253600480360381019061024e91906111c2565b6109d9565b005b348015610260575f5ffd5b50610269610b4d565b6040516102769190611253565b60405180910390f35b34801561028a575f5ffd5b506102a560048036038101906102a09190611197565b610b71565b6040516102b5949392919061126c565b60405180910390f35b7f000000000000000000000000000000000000000000000000000000000000000081565b7f000000000000000000000000000000000000000000000000000000000000000081565b61030e610b9d565b5f610317610919565b73ffffffffffffffffffffffffffffffffffffffff164760405161033a906112dc565b5f6040518083038185875af1925050503d805f8114610374576040519150601f19603f3d011682016040523d82523d5f602084013e610379565b606091505b50509050806103b4576040517f90b8ec1800000000000000000000000000000000000000000000000000000000815260040160405180910390fd5b50565b6103bf610b9d565b6103c98282610c24565b5050565b6103d5610d19565b8460015f3373ffffffffffffffffffffffffffffffffffffffff1673ffffffffffffffffffffffffffffffffffffffff1681526020019081526020015f20541461044b576040517f2c5211c600000000000000000000000000000000000000000000000000000000815260040160405180910390fd5b7f000000000000000000000000000000000000000000000000000000000000000073ffffffffffffffffffffffffffffffffffffffff166309a3ee178684848888336040518763ffffffff1660e01b81526004016104ae96959493929190611368565b602060405180830381865afa1580156104c9573d5f5f3e3d5ffd5b505050506040513d601f19601f820116820180604052508101906104ed91906113f7565b610523576040517f09bde33900000000000000000000000000000000000000000000000000000000815260040160405180910390fd5b5f60025f3373ffffffffffffffffffffffffffffffffffffffff1673ffffffffffffffffffffffffffffffffffffffff1681526020019081526020015f205f0154111561059c576040517fa2812bd500000000000000000000000000000000000000000000000000000000815260040160405180910390fd5b60405180608001604052808681526020015f81526020018581526020018481525060025f3373ffffffffffffffffffffffffffffffffffffffff1673ffffffffffffffffffffffffffffffffffffffff1681526020019081526020015f205f820151815f01556020820151816001015560408201518160020155606082015181600301559050505f60015f3373ffffffffffffffffffffffffffffffffffffffff1673ffffffffffffffffffffffffffffffffffffffff1681526020019081526020015f208190555061066d610d3b565b5050505050565b61067c610b9d565b6106855f610d55565b565b5f60025f3373ffffffffffffffffffffffffffffffffffffffff1673ffffffffffffffffffffffffffffffffffffffff1681526020019081526020015f2090505f815f015403610703576040517f7c8e606e00000000000000000000000000000000000000000000000000000000815260040160405180910390fd5b5f61073f826040518060800160405290815f82015481526020016001820154815260200160028201548152602001600382015481525050610e16565b90505f826001015482610752919061144f565b90505f810361078d576040517fb10205ed00000000000000000000000000000000000000000000000000000000815260040160405180910390fd5b807f000000000000000000000000000000000000000000000000000000000000000073ffffffffffffffffffffffffffffffffffffffff166370a08231306040518263ffffffff1660e01b81526004016107e7919061117e565b602060405180830381865afa158015610802573d5f5f3e3d5ffd5b505050506040513d601f19601f820116820180604052508101906108269190611496565b101561085e576040517f786e0a9900000000000000000000000000000000000000000000000000000000815260040160405180910390fd5b80836001015f82825461087191906114c1565b925050819055507f000000000000000000000000000000000000000000000000000000000000000073ffffffffffffffffffffffffffffffffffffffff1663a9059cbb33836040518363ffffffff1660e01b81526004016108d39291906114f4565b6020604051808303815f875af11580156108ef573d5f5f3e3d5ffd5b505050506040513d601f19601f8201168201806040525081019061091391906113f7565b50505050565b5f5f5f9054906101000a900473ffffffffffffffffffffffffffffffffffffffff16905090565b610948610b9d565b5f73ffffffffffffffffffffffffffffffffffffffff168173ffffffffffffffffffffffffffffffffffffffff16036109b8575f6040517f1e4fbdf70000000000000000000000000000000000000000000000000000000081526004016109af919061117e565b60405180910390fd5b6109c181610d55565b50565b6001602052805f5260405f205f915090505481565b6109e1610d19565b5f670de0b6b3a76400007f000000000000000000000000000000000000000000000000000000000000000034610a17919061151b565b610a219190611589565b90505f8111610a5c576040517f2c5211c600000000000000000000000000000000000000000000000000000000815260040160405180910390fd5b7f000000000000000000000000000000000000000000000000000000000000000073ffffffffffffffffffffffffffffffffffffffff166309a3ee178287878688336040518763ffffffff1660e01b8152600401610abf96959493929190611368565b602060405180830381865afa158015610ada573d5f5f3e3d5ffd5b505050506040513d601f19601f82011682018060405250810190610afe91906113f7565b610b34576040517f09bde33900000000000000000000000000000000000000000000000000000000815260040160405180910390fd5b610b3e3382610c24565b50610b47610d3b565b50505050565b7f000000000000000000000000000000000000000000000000000000000000000081565b6002602052805f5260405f205f91509050805f0154908060010154908060020154908060030154905084565b610ba5610e85565b73ffffffffffffffffffffffffffffffffffffffff16610bc3610919565b73ffffffffffffffffffffffffffffffffffffffff1614610c2257610be6610e85565b6040517f118cdaa7000000000000000000000000000000000000000000000000000000008152600401610c19919061117e565b60405180910390fd5b565b5f73ffffffffffffffffffffffffffffffffffffffff168273ffffffffffffffffffffffffffffffffffffffff1603610c89576040517f5566df5c00000000000000000000000000000000000000000000000000000000815260040160405180910390fd5b5f8103610cc2576040517f2c5211c600000000000000000000000000000000000000000000000000000000815260040160405180910390fd5b8060015f8473ffffffffffffffffffffffffffffffffffffffff1673ffffffffffffffffffffffffffffffffffffffff1681526020019081526020015f205f828254610d0e91906114c1565b925050819055505050565b610d21610e8c565b6002610d33610d2e610ecd565b610ef6565b5f0181905550565b6001610d4d610d48610ecd565b610ef6565b5f0181905550565b5f5f5f9054906101000a900473ffffffffffffffffffffffffffffffffffffffff169050815f5f6101000a81548173ffffffffffffffffffffffffffffffffffffffff021916908373ffffffffffffffffffffffffffffffffffffffff1602179055508173ffffffffffffffffffffffffffffffffffffffff168173ffffffffffffffffffffffffffffffffffffffff167f8be0079c531659141344cd1fd0a4f28419497f9722a3daafe3b4186f6b6457e060405160405180910390a35050565b5f8160400151421015610e2b575f9050610e80565b81606001518260400151610e3f91906114c1565b4210610e5057815f01519050610e80565b8160600151826040015142610e65919061144f565b835f0151610e73919061151b565b610e7d9190611589565b90505b919050565b5f33905090565b610e94610eff565b15610ecb576040517f3ee5aeb500000000000000000000000000000000000000000000000000000000815260040160405180910390fd5b565b5f7f9b779b17422d0df92223018b32b4d1fa46e071723d6817e2486d003becc55f005f1b905090565b5f819050919050565b5f6002610f12610f0d610ecd565b610ef6565b5f015414905090565b5f73ffffffffffffffffffffffffffffffffffffffff82169050919050565b5f819050919050565b5f610f5d610f58610f5384610f1b565b610f3a565b610f1b565b9050919050565b5f610f6e82610f43565b9050919050565b5f610f7f82610f64565b9050919050565b610f8f81610f75565b82525050565b5f602082019050610fa85f830184610f86565b92915050565b5f819050919050565b610fc081610fae565b82525050565b5f602082019050610fd95f830184610fb7565b92915050565b5f5ffd5b5f5ffd5b5f610ff182610f1b565b9050919050565b61100181610fe7565b811461100b575f5ffd5b50565b5f8135905061101c81610ff8565b92915050565b61102b81610fae565b8114611035575f5ffd5b50565b5f8135905061104681611022565b92915050565b5f5f6040838503121561106257611061610fdf565b5b5f61106f8582860161100e565b925050602061108085828601611038565b9150509250929050565b5f5ffd5b5f5ffd5b5f5ffd5b5f5f83601f8401126110ab576110aa61108a565b5b8235905067ffffffffffffffff8111156110c8576110c761108e565b5b6020830191508360208202830111156110e4576110e3611092565b5b9250929050565b5f5f5f5f5f6080868803121561110457611103610fdf565b5b5f61111188828901611038565b955050602061112288828901611038565b945050604061113388828901611038565b935050606086013567ffffffffffffffff81111561115457611153610fe3565b5b61116088828901611096565b92509250509295509295909350565b61117881610fe7565b82525050565b5f6020820190506111915f83018461116f565b92915050565b5f602082840312156111ac576111ab610fdf565b5b5f6111b98482850161100e565b91505092915050565b5f5f5f5f606085870312156111da576111d9610fdf565b5b5f85013567ffffffffffffffff8111156111f7576111f6610fe3565b5b61120387828801611096565b9450945050602061121687828801611038565b925050604061122787828801611038565b91505092959194509250565b5f61123d82610f64565b9050919050565b61124d81611233565b82525050565b5f6020820190506112665f830184611244565b92915050565b5f60808201905061127f5f830187610fb7565b61128c6020830186610fb7565b6112996040830185610fb7565b6112a66060830184610fb7565b95945050505050565b5f81905092915050565b50565b5f6112c75f836112af565b91506112d2826112b9565b5f82019050919050565b5f6112e6826112bc565b9150819050919050565b5f82825260208201905092915050565b5f5ffd5b82818337505050565b5f61131883856112f0565b93507f07ffffffffffffffffffffffffffffffffffffffffffffffffffffffffffffff83111561134b5761134a611300565b5b60208302925061135c838584611304565b82840190509392505050565b5f60a08201905061137b5f830189610fb7565b818103602083015261138e81878961130d565b905061139d6040830186610fb7565b6113aa6060830185610fb7565b6113b7608083018461116f565b979650505050505050565b5f8115159050919050565b6113d6816113c2565b81146113e0575f5ffd5b50565b5f815190506113f1816113cd565b92915050565b5f6020828403121561140c5761140b610fdf565b5b5f611419848285016113e3565b91505092915050565b7f4e487b71000000000000000000000000000000000000000000000000000000005f52601160045260245ffd5b5f61145982610fae565b915061146483610fae565b925082820390508181111561147c5761147b611422565b5b92915050565b5f8151905061149081611022565b92915050565b5f602082840312156114ab576114aa610fdf565b5b5f6114b884828501611482565b91505092915050565b5f6114cb82610fae565b91506114d683610fae565b92508282019050808211156114ee576114ed611422565b5b92915050565b5f6040820190506115075f83018561116f565b6115146020830184610fb7565b9392505050565b5f61152582610fae565b915061153083610fae565b925082820261153e81610fae565b9150828204841483151761155557611554611422565b5b5092915050565b7f4e487b71000000000000000000000000000000000000000000000000000000005f52601260045260245ffd5b5f61159382610fae565b915061159e83610fae565b9250826115ae576115ad61155c565b5b82820490509291505056fea264697066735822122055b86fb432e92cf9b058102a54baf6db3ac71895302b8c16a1342d7bb5c7586564736f6c634300081c0033",
  "linkReferences": {},
  "deployedLinkReferences": {},
  "immutableReferences": {
    "2452": [
      {
        "length": 32,
        "start": 1936
      },
      {
        "length": 32,
        "start": 2170
      },
      {
        "length": 32,
        "start": 2895
      }
    ],
    "2455": [
      {
        "length": 32,
        "start": 704
      },
      {
        "length": 32,
        "start": 1101
      },
      {
        "length": 32,
        "start": 2654
      }
    ],
    "2494": [
      {
        "length": 32,
        "start": 740
      },
      {
        "length": 32,
        "start": 2541
      }
    ]
  },
  "inputSourceName": "project/contracts/Vesting.sol",
  "buildInfoId": "solc-0_8_28-fab29a91d0d54c9142c1abeaecc755bc9697cf7c"
}